:100000000C9446000C945D000C945D000C945D0013
:100010000C945D000C945D000C945D000C945D00EC
:100020000C945D000C945D000C945D000C945D00DC
:100030000C945D000C945D000C945D000C945D00CC
:100040000C945D000C945D000C945D000C945D00BC
:100050000C945D000C945D000C945D000C945D00AC
:100060000C945D000C945D000C945D000C945D009C
:100070000C945D000C945D000C945D000C945D008C
:100080000C945D000C945D000C945D0011241FBE67
:10009000CFEFD0E4DEBFCDBF11E0A0E0B1E0E8E2F9
:1000A000F1E000E00BBF02C007900D92AE30B10747
:1000B000D9F70E9470000C9492000C940000CF932A
:1000C000C82F8A3019F48DE00E945F008091C00033
:1000D00085FFFCCFC093C60080E090E0CF910895EB
:1000E00011B88FEF82B987B918B880B180958F7039
:1000F00011F490E001C090E2833008F09061853007
:1001000008F09860873008F094608A3008F09260B8
:100110008D3008F09160853010F4906401C09F7BB1
:0801200098B9E3CFF894FFCF7A
:0E01280000000002000000005F000000000068
:00000001FF
