:100000000C9446000C9465000C9465000C946500FB
:100010000C9465000C9465000C9465000C946500CC
:100020000C9465000C9465000C9465000C946500BC
:100030000C9465000C9465000C9465000C946500AC
:100040000C9465000C9465000C9465000C9465009C
:100050000C9465000C9465000C9465000C9465008C
:100060000C9465000C9465000C9465000C9465007C
:100070000C9465000C9465000C9465000C9465006C
:100080000C9465000C9465000C94650011241FBE4F
:10009000CFEFD0E4DEBFCDBF11E0A0E0B1E0EEE8ED
:1000A000F2E000E00BBF02C007900D92AE30B10746
:1000B000D9F721E0AEE0B1E001C01D92A231B20754
:1000C000E1F70E9430010C9445010C940000CF939D
:1000D000C82F8A3019F48DE00E9467008091C0001B
:1000E00085FFFCCFC093C60080E090E0CF910895DB
:1000F00080910E0190910F018230910509F454C056
:1001000028F4009759F0019791F09DC08330910534
:1001100009F468C0049709F483C095C010921001D7
:1001200081E090E090930F0180930E0190C0809148
:100130001101982F917080FF11C081FD0FC082E0E6
:1001400090E090930F0180930E018091100189300F
:1001500008F07DC08F5F8093100179C081FF11C0CE
:1001600091110FC083E090E090930F0180930E01F6
:1001700080911001882309F46AC081508093100196
:1001800066C08370833049F484E090E090930F015F
:1001900080930E01109210015AC081E090E090937C
:1001A0000F0180930E0153C08091110180FF09C09F
:1001B00081FD07C082E090E090930F0180930E01D3
:1001C00046C08370833039F484E090E090930F014F
:1001D00080930E013CC081E090E090930F018093EA
:1001E0000E0135C08091110181FF09C080FD07C05B
:1001F00083E090E090930F0180930E0128C08370FC
:10020000833039F484E090E090930F0180930E01E5
:100210001EC081E090E090930F0180930E0117C003
:10022000809111018370833039F484E090E09093E1
:100230000F0180930E010BC081E090E090930F01BD
:1002400080930E0104C010920F0110920E01809154
:100250000E0190910F01049711F41092100108956E
:1002600011B88FEF82B987B918B8109210011092A7
:100270000F0110920E0180B18095809311010E94B0
:0E02800078008091100188B9F6CFF894FFCF76
:0E028E000000000200000000670000000000F9
:00000001FF
